:094C500073746172743A0D0A00DC
:1011E10044045500000000C100C10242045900003E
:1011F10041044B00C18148044C0000000000000084
:0F12010000410454004204470000420449000029
:1032CB00C2921200221200037FF47E0112000E90B4
:1032DB0002D17401F0A37400F0A3740DF0A3740277
:1032EB00F0A37404F07B017A007900123B5B7BFF47
:1032FB007A4C795012461C124BC212004E90039915
:10330B007401F0A37403F0A37475F012414C7B01AC
:10331B007A04794C122C369003A0EFF0900453E012
:10332B00FF6022547FFFC3941D501AE030E70CE47A
:10333B00FD124512E4900453F0800A900453E0FF11
:10334B007D011245127B017A037999C003C002C03B
:10335B0001900399E0FBA3E0FAA3E0F91209FE89BF
:10336B00828A83D001D002D003120B277B017A0310
:10337B007999C003C002C001900399E0FBA3E0FA66
:10338B00A3E0F9900003120A6D89828A83D001D0E1
:10339B0002D003120B277B017A037999C003C00279
:1033AB00C001900399E0FBA3E0FAA3E0F9900006BB
:1033BB00120A6D89828A83D001D002D003120B27A7
:1033CB007B017A037999C003C002C001900399E095
:1033DB00FBA3E0FAA3E0F9900009120A6D89828A37
:1033EB0083D001D002D003120B2712245690026017
:1033FB00A3E090039EF0200003023319C2007B016F
:10340B007A04792B9002D2740FF0E4FF1241BA02C6
:02341B00331963
:03000B00023C2A8A
:103C2A00C0E0C0F0C083C082C0D075D000C000C060
:073C3A0004C005C006C0072D
:103C410090044AE004F07006900449E004F0C39047
:103C5100044AE094E8900449E094034006E4F0A3A8
:103C6100F0D202900448E004F07006900447E004AA
:103C7100F0D3900448E09482900447E09400400619
:103C8100E4F0A3F0D200900455E0FCA3E0FDA3E032
:103C9100FEA3E02401FFE43EFEE43DFDE43CFC9094
:103CA1000455120983900216E0600E900218E0702C
:0E3CB10008900220E004F08005900220E4F06C
:103CBF00D007D006D005D004D000D0D0D082D0838A
:053CCF00D0F0D0E0324E
:0100220022BB
:0844BC00FF124A3B0F124A5B9C
:1044C400E4FFFE30A6010F30A704EF4402FF308062
:1044D40004EF4404FF308104EF4408FF308204EF0A
:1044E4004410FF30C304EE4401FE308304EE440262
:1044F400FE308404EE4404FE308504EE4408FE30AD
:0D4504008604EE4410FE308704EE4420FED5
:014511002287
:104A3B00EFB4010FD2C3D283D284D285D286D28770
:104A4B00000022C2C3C283C284C285C286C287222F
:104A5B00EFB4010DD2A6D2A7D280D281D2820000B0
:0C4A6B0022C2A6C2A7C280C281C2822261
:104ACB00E41244BCEF641F4E600E00001244C4EFAE
:0B4ADB00641F4E60037F01227F002259
:10315700E4FDFC1244BCEF641F4E70030232C81238
:1031670044C4AC06AD07ED641F4C70030232C87F40
:1031770001124A3B1F124A5BEC60030232C8ED247E
:10318700E9605624FC700302321B24FE70030232EE
:1031970056147003023291240F60030232C812449E
:1031A700C4AC06AD07ED8CF0120AF631DD1F003115
:1031B700DA2F0031D7370031D43B0031D13D003110
:1031C700CE3E00000032C87F05227F0A227F0F22F1
:1031D7007F13227F2D227F1C221244C4AC06AD0729
:1031E700ED8CF0120AF632181F0032152F0032123A
:1031F7003700320F3B00320C3D0032093E00000021
:1032070032C87F04227F09227F0E227F12227F2C61
:10321700227F1B221244C4AC06AD07ED8CF0120AC4
:10322700F632531F0032502F00324D3700324A3BDF
:103237000032473D0032443E00000032C87F03227F
:103247007F08227F28227F11227F2B227F1A2212BA
:1032570044C4AC06AD07ED8CF0120AF6328E1F009F
:10326700328B2F003288370032853B0032823D0097
:10327700327F3E00000032C87F02227F07227F0C88
:10328700227F10227F2A227F2F221244C4EF8EF042
:10329700120AF632C51F0032C22F0032BF37003282
:1032A700BC3B0032B93D0032B63E00000032C87F59
:1032B70001227F06227F0B227F29227F14227F2E65
:0332C700227F0063
:0132CA0022E1
:094C5900D2A2D2A1C2A2C2A12282
:094C6200C2A1C2A2D2A1D2A22279
:02476F00AD0794
:10477100E4FC74017E00A804088005C333CE33CE67
:10478100D8F9FFEDFBEF5B6004D2A28002C2A2D296
:08479100A1C2A10CECB408DA8E
:0147990022FD
:0E41BA009002CEEFF0A3EBF0A3EAF0A3E9F041
:1041C800E49002D3F0124C597F4012476F124C62B0
:1041D800124C599002CEE044C0FF12476FE490029F
:1041E800D3F09002D2E0FFA3E0FEC39F501F9002DD
:1041F800CFE0FBA3E0FAA3E0F98E827583001205F5
:1042080077FF12476F9002D3E004F080D5124C621A
:0B421800124C597F8F12476F024C625E
:02121000C10318
:104B9500759850438E40538EFE53890F758BCC7597
:074BA5008DFFC2ABD28E228E
:08000300124B95D2ACD2AF22E2
:084C7400D2038F992003FD22F9
:10461C00900348EBF0A3EAF0A3E9F0900348E0FB29
:10462C00A3E0FAA3E0F912055E6017900348A3E437
:10463C0075F001120679A9F0FA12055EFF124C749E
:03464C0080D922F0
:03002300024C1478
:0D4C1400309802C298309904C299C2033250
:084C6B007F187E55DEFEDFFC20
:014C7300221E
:10000E00AD07AC06ED1DAE0470011C4E6005124C22
:04001E006B80F122E0
:104BC200438E805389F0758A40758CA2C28DD28C37
:034BD200D2A92243
:104465000000000000000000000030313233343518
:1044750036373839414243444546000000000000C4
:104485000000000000000000000000000000000027
:104495000000000000000000000000000000000017
:1044A5000000000000000000000000000000000007
:0744B5000000000000000000
:0F1A0300900348EBF0A3EAF0A3E9F0A3120983E4
:101A1200E4900350F0A312098F00000000900355D8
:101A220012098F0000000090035912098F00000074
:101A320001E4900350F090034FE0FFA3E0C39F50F6
:101A420025900359E0FCA3E0FDA3E0FEA3E0FFE440
:101A52007B0AFAF9F8120776900359120983900368
:101A620050E004F080D090034BE0FCA3E0FDA3E043
:101A7200FEA3E0FF1203E7E41203A9A804A905AA42
:101A820006AB0790034BE0FCA3E0FDA3E0FEA3E05E
:101A9200FF1200A1E4FBFAF9F812033C505F900335
:101AA20059E0FCA3E0FDA3E0FEA3E0FFE41203A9DA
:101AB20090034BE0F8A3E0F9A3E0FAA3E0FB1201E4
:101AC20096E4FBFAF9783F1200A5C004C005C006EF
:101AD200C007900359E0FCA3E0FDA3E0FEA3E0FFF2
:101AE200E41203A9A804A905AA06AB07D007D006E9
:101AF200D005D00412029F90034B12098390034B2E
:101B0200E0FCA3E0FDA3E0FEA3E0FF1203E79003E5
:101B12005512098390035112098F00000001E47FDE
:101B22000AFEFDFC900355E0F8A3E0F9A3E0FAA356
:101B3200E0FBC31208A1403C900351E0FCA3E0FD8E
:101B4200A3E0FEA3E0FFE47B0AFAF9F8120776901D
:101B52000351120983900355E0FCA3E0FDA3E0FECC
:101B6200A3E0FFE47B0AFAF9F81208019003551288
:101B7200098380AA90034BE0FCA3E0FDA3E0FEA34F
:101B8200E0FF1203E7900355120983E4900350F03B
:101B9200E4FFFEFDFC900351E0F8A3E0F9A3E0FAB4
:101BA200A3E0FBD31208A15003021C32900351E0C0
:101BB200F8A3A3A3A3E0FCA3E0FDA3E0FEA3E0FF40
:101BC200120801EF2430FF900348E0FBA3E0FAA3E0
:101BD200E0F9900350E0F582758300EF1205B690AC
:101BE2000355E0FCA3E0FDA3E0FEA3E0FF90035158
:101BF200E0F8A3E0F9A3E0FAA3E0FB120801AC00CD
:101C0200AD01AE02AF03900355120983900350E079
:101C120004F0A3E0FCA3E0FDA3E0FEA3E0FFE47B6D
:101C22000AFAF9F8120801900351120983021B9271
:101C320090034BE0FCA3E0FDA3E0FEA3E0FF120350
:101C4200E790035512098390035112098F00000097
:101C520000900355E0FCA3E0FDA3E0FEA3E0FFE457
:101C62001203A9A804A905AA06AB0790034BE0FC3E
:101C7200A3E0FDA3E0FEA3E0FF1200A1C004C005A3
:101C8200C006C007900359E0FCA3E0FDA3E0FEA359
:101C9200E0FFE41203A9D003D002D001D000120168
:101CA200961203E7900355120983900359E0FCA3AF
:101CB200E0FDA3E0FEA3E0FF900351120983E47F5D
:101CC2000AFEFDFC900351E0F8A3E0F9A3E0FAA3B9
:101CD200E0FBC31208A15003021D98900348E0FBE9
:101CE200A3E0FAA3E0F9900350E0F5827583007453
:101CF2002E1205B6807CE4FFFEFDFC900351E0F855
:101D0200A3E0F9A3E0FAA3E0FBD31208A150030277
:101D12001D98900351E0F8A3A3A3A3E0FCA3E0FD68
:101D2200A3E0FEA3E0FF120801EF2430FF90034876
:101D3200E0FBA3E0FAA3E0F9900350E0F58275839B
:101D420000EF1205B6900355E0FCA3E0FDA3E0FE10
:101D5200A3E0FF900351E0F8A3E0F9A3E0FAA3E0C7
:101D6200FB120801AC00AD01AE02AF0390035512A5
:101D72000983900350E004F0A3E0FCA3E0FDA3E09C
:101D8200FEA3E0FFE47B0AFAF9F81208019003517E
:101D9200120983021CF8900348E0FBA3E0FAA3E0D7
:0E1DA200F9900350E0F582758300E41205B657
:011DB0002210
:0B435100900348EBF0A3EAF0A3E9F0B2
:10435C00784B7C037D017BFF7A4479657E007F027C
:10436C00120538E4FF900348E0FBA3E0FAA3E0F960
:10437C008F82758300120577642560030F80E690A9
:10438C00034BEFF00F900348E0FBA3E0FAA3E0F936
:10439C008F8275830012057790034CF07B017A03B2
:0243AC00794B4B
:0143AE0022EC
:0F379F00900348EBF0A3EAF0A3E9F0A31209832B
:1037AE00784F7C037D017BFF7A4479677E007F082A
:1037BE00120538E4900357F0A3F078597C037D018D
:1037CE007BFF7A44796FFE7F11120538900348E033
:1037DE00FBA3E0FAA3E0F974301205A4900348E0CD
:1037EE00FBA3E0FAA3E0F990000174781205B690FD
:1037FE00034BE0FCA3E0FDA3E0FEA3E0FFEC4D4E87
:10380E004F604690034BA3A3A3E07E00540F2459B0
:10381E00F582EE3403F583E0FF900357E0244FF575
:10382E0082E43403F583EFF090034BE0FCA3E0FD5C
:10383E00A3E0FEA3E0FF78041208B290034B120936
:10384E0083900357E004F080A6900357E060331492
:10385E00F0E0244FF582E43403F583E0FF90035843
:10386E00E02402FDE433FC900348E0FBA3E0FAA35E
:10387E00E0F98D828C83EF1205B6900358E004F0C8
:10388E0080C7900358E02402FFE433FE900348E023
:0F389E00FBA3E0FAA3E0F98F828E83E40205B664
:0F2FD7009002F7EBF0A3EAF0A3E9F0A31209834D
:102FE60078097C037D017BFF7A4479807E007F1E11
:102FF60012053878277C037D017BFF7A44799E7E13
:10300600007F1E1205389002F7E0FBA3E0FAA3E06A
:10301600F912435178467C037D017E007F0212053A
:1030260038900347E0B464229002FAE0FCA3E0FD86
:10303600A3E0FEA3E0FFE41203A9E490034FF07BB4
:10304600017A0279FE121A03801E900347E0B478D3
:10305600177B017A0279FE9002FAE0FCA3E0FDA359
:10306600E0FEA3E0FF12379FE4900345F09003468D
:10307600E02402FFE433FE900345E07C002FFFECE2
:103086003EFE9002F7E0FBA3E0FAA3E0F98F828E02
:1030960083120577FF6017900345E02409F582E463
:1030A6003403F583EFF0900345E004F080BFE4902D
:1030B6000345F0900346E0FF900345E0FEC39F50B2
:1030C600289002F7E0FBA3E0FAA3E0F98E8275836D
:1030D60000120577FF74272EF582E43403F583EF9B
:1030E600F0900345E004F080CAE4FF74FE2FF582F9
:1030F600E43402F583E0FE6018900345E02427F5EA
:1031060082E43403F583EEF0900345E004F00F808B
:10311600DAE4FF74092FF582E43403F583E0FE60F8
:1031260018900345E02427F582E43403F583EEF096
:10313600900345E004F00F80DA900345E02427F57C
:1031460082E43403F583E4F07B017A0379270246AF
:013156001C5C
:041212004104600033
:0F4BE800900455E0FCA3E0FDA3E0FEA3E0FF2254
:06479A001205B61208C56D
:1047A0009002D6120983124BE89002D6E0F8A3E0FB
:1047B000F9A3E0FAA3E0FBC3EF9BFFEE9AFEED99AD
:0547C000FDEC98FC2255
:0B2C36009002CEEBF0A3EAF0A3E9F05F
:102C4100A312098F00000000E49002D5F09002CE9B
:102C5100E0FBA3E0FAA3E0F9900005120577146008
:102C61004724FE606724036003022CEA900004E419
:102C71001205B6124ACB9002D5EFF0606CE49004D5
:102C810060F09002CEE0FBA3E0FAA3E0F99000052A
:102C910074011205B6124BE89002CEE0FBA3E0FAF4
:102CA100A3E0F91209158041900460E0703B04F043
:102CB1001231579002CEE0FBA3E0FAA3E0F99000B5
:102CC10006EF1205B69000057403801A124ACB90E4
:102CD10002D5EFF070139002CEE0FBA3E0FAA3E07F
:102CE100F990000574021205B69002CEE0FBA3E054
:102CF100FAA3E0F990000512057764037062900071
:102D01000612057790000712479A9002D1120983A3
:102D1100E47FD07E07FDFC9002D1E0F8A3E0F9A3A7
:102D2100E0FAA3E0FBC31208A14020900460E06038
:102D31001AE4F09002CEE0FBA3E0FAA3E0F99000E0
:102D4100061205774480900004800F9002CEE0FBCC
:102D5100A3E0FAA3E0F9900004E41205B6022DFE07
:102D61009002CEE0FBA3E0FAA3E0F9900005120582
:102D71007764026003022DFE90000512479A9002CB
:102D8100D11209839002CEE0FBA3E0FAA3E0F9128D
:102D910009C000000000E47F05FEFDFC9002D1E0C7
:102DA100F8A3E0F9A3E0FAA3E0FBC31208A1402CC9
:102DB100E47FD07E07FDFC9002D1E0F8A3A3A3E05D
:102DC1001208A150179002CEE0FBA3E0FAA3E0F9AC
:102DD1009000061205779000041205B69002CEE02D
:102DE100FBA3E0FAA3E0F9900006E41205B6E9249A
:102DF10007F9E43AFA12055E44801205A49002CE66
:0F2E0100E0FBA3E0FAA3E0F9900004120577FFCD
:012E1000229F
:1012160050042B0000000000000000000000000049
:101226000000004C043B3F065B4F666D7D077F6FF9
:02123600007145
:103D6F00AB07AA06BAFF0FBBFF0CE4900431F0A318
:063D7F00F0A3F0A3F02206
:103D85007C007D3CAF03AE021205D89002CEEFF069
:103D9500AE02AF037C007D3C1205D8A3EDF0900286
:103DA500CEE0FF75F06484E5F075F00A84243BF5F8
:103DB50082E43404F583E0900431F0EF75F00A8471
:103DC500743B25F0F582E43404F583E044809004E7
:103DD50032F09002CFE0FF75F00A84243BF582E4CF
:103DE5003404F583E0900433F0EF75F00A84743BF6
:0E3DF50025F0F582E43404F583E0900434F008
:013E0300229C
:10406C00AB07AA06BAFF0DBBFF0AE490042BF0A322
:10407C00F0A3F0227C007D64AF03AE021205D8746D
:10408C003B2FF58274043EF583E090042BF07C000A
:10409C007D64AF03AE021205D87E007F0ACFCDCF70
:1040AC00CECCCE1205D8743B2FF58274043EF5832A
:1040BC00E090042CF0AE02AF037C007D0A1205D810
:1040CC00743B2DF58274043CF583E090042DF022B2
:103E9000AB07AA06BAFF0DBBFF0AE490042EF0A3FD
:103EA000F0A3F0227C037DE8AF03AE021205D87EBA
:103EB000007F64CFCDCFCECCCE1205D8743B2FF58A
:103EC0008274043EF583E090042EF07C007D64AFA4
:103ED00003AE021205D87E007F0ACFCDCFCECCCE66
:103EE0001205D8743B2FF58274043EF583E09004EC
:103EF0002FF0AE02AF037C007D0A1205D8743B2D73
:0D3F0000F58274043CF583E0900430F0225B
:104512001FEF131313541F240AFEEF5407FFED601D
:104522001E742B2EF582E43404F583C083C082E02E
:10453200FE7401A807088002C333D8FC4E801D74A4
:104542002B2EF582E43404F583C083C082E0FE742E
:1045520001A807088002C333D8FCF45ED082D0835E
:01456200F068
:014563002235
:104B0100EF600C90043574FFF0A3E0440FF022E451
:0A4B1100900435F0A3E054F0F02208
:0F4BF700E4900435F0A3F0A3F0A3E054F8F0220B
:0A4C45007F1090042BE4F0A3DFFCC5
:014C4F002242
:1046B300AC07AE057410A806088002C333D8FCFE0D
:1046C300900438E0540F4EF0AF047401A80708803B
:0F46D30002C333D8FCFF900439E054E04FF022CB
:1045E000EFD3940C5035EF60321FEFC39408501393
:1045F0007401A807088002C333D8FC900435F0E4A6
:10460000A3F02274F82FFF7401A807088002C333B7
:0C461000D8FC900436F0E4900435F02251
:0E4C0600E4F5C7F5C5F5C675C3FF75C4FF22FA
:074B1B00ECF5C3AF058FC4E8
:104B2200A2AF92D5C2AF75C65A75C6A50000A2D56E
:034B320092AF221D
:104BD500AD07AC0675C78075F51875C503124B1B77
:034BE500024C0679
:10464F00AD07AC0675C78075F51875C501124B1B04
:10465F00E5C21205A40DBD00010C740129F9E43A5D
:10466F00FA9002E774FFF5F012066345F070DE0270
:02467F004C06E7
:0F38AD009002E4EBF0A3EAF0A3E9F0AD07AC065C
:1038BC00A3E0FAA3E0FB4A70037F012275C7807571
:1038CC00F5189002E9EBF0A3ECF0A3EDF09002E414
:1038DC00E0F9A3E0FAA3E09002ECC9F0A3EAF0A3AC
:1038EC00E9F075C502ECF5C3AF058FC49002E4E0B6
:1038FC00FBA3E0FAA3E0F912055EF5C2124B220D10
:10390C00BD00010C9002E5E475F001120663900213
:10391C00E774FFF5F012066345F070C99002EAE017
:10392C00FCA3E0FD9002E9E0FF9002E7E4F0A3EFD6
:10393C00F09002ECE0F9A3E0FAA3E09002E4C9F005
:10394C00A3EAF0A3E9F0E49002E9F075C501124B8B
:10395C001B9002E4E0FBA3E0FAA3E0F912055E651C
:10396C00C260089002E97402F0801D0DBD00010CCC
:10397C009002E5E475F0011206639002E774FFF51E
:10398C00F012066345F070C6124C069002E9E0FF97
:01399C002208
:04468100AD07AC06CF
:1046850075C78075F5187B007A0275C502ECF5C310
:10469500AF058FC4E4F5C2124B220DBD00010CEB32
:0D46A5001B70011A144A70E5124C06AF0399
:0146B20022E5
:103F0D00494E49545F4441540D0A00666C61736813
:103F1D007265616420414444525F4E4F524D414C95
:103F2D00206572726F0D0A0024207365746E756DB5
:103F3D00203D2025642000242066756E7370656514
:103F4D0064203D2025640D0A00666C617368207342
:103F5D006176650D0A0023207365746E756D203DC5
:103F6D002025642000232066756E737065656420BE
:073F7D003D2025640D0A0040
:101238004603D1000000000000605403D72AFF4B8A
:10124800352BFF46E22CFF4B4D2DFF471192FF47F0
:10125800C501FF49C902FF47F003FF481B04FF48C7
:101268004605FF487106FF489C07FF48C708FF4826
:10127800F209FF491D0AFF49480BFF49730CFF4952
:101288009E2EFF4B652FFF474028FF440C29FF4542
:01129800A3B2
:104AE600E49002CFF0A3F0FF7E021246817F007EA3
:0B4AF600041246817F007E060246810C
:10414C00E49002CEF09003D0F09003CFF07B017A94
:10415C000279CE9002D4F0A304F0E4FFFE122A05FB
:10416C009002CEE0649A6023749AF07B017A027913
:10417C00CE9002D4E4F0A304F0E4FFFE122112125C
:10418C004AE67BFF7A3F790D12461C7B017A037954
:10419C00A29002D4E4F0A37409F07F007E02122AEC
:0D41AC0005EF60097BFF7A3F791812461C71
:0141B90022E3
:104B35009003CFE075F009A424A4F582E43403F5CD
:084B450083E475F00102066330
:1046E2009003CFE0FF75F009A424A4F582E434031B
:1046F200F583E0FCA3E04C6015EF75F009A424A457
:0F470200F582E43403F58374FFF5F012066322A9
:104B4D009003CFE075F009A424A6F582E43403F5B3
:084B5D0083E475F00102066318
:104711009003CFE0FF75F009A424A6F582E43403E9
:10472100F583E0FCA3E04C6015EF75F009A424A625
:0F473100F582E43403F58374FFF5F0120663227A
:104B65009003CFE075F009A424A8F582E43403F599
:084B750083E475F00102066300
:104740009003CFE0FF75F009A424A8F582E43403B8
:10475000F583E0FCA3E04C6015EF75F009A424A8F4
:0F476000F582E43403F58374FFF5F0120663224B
:10440C009003CFE0FF75F009A424AAF582E43403ED
:10441C00F583E004F0EF75F009A424AAF582E434E6
:10442C0003F583E05403F07BFF7A3F79359003CF9B
:10443C00E0FFE4FCFDFE122FD79003CFE075F009EE
:10444C00A424AAF582E43403F583E0FFE4FCFDFE2A
:09445C007BFF7A3F7944022FD75F
:1047C5009003D0E075F02DA42400FFE5F03404FE3D
:1047D5007B017A0379A29002D4E4F0A3742DF01240
:0B47E50021127BFF7A3F795602461C30
:1049C900E49003D0F09003CFF0A3E075F02DA42478
:1049D90000FFE5F03404FE7B017A0379A29002D44A
:0949E900E4F0A3742DF0022A058C
:1047F0009003D07401F0E49003CFF0A3E075F02DA6
:10480000A42400FFE5F03404FE7B017A0379A29032
:0B48100002D4E4F0A3742DF0022A058E
:10481B009003D07402F0E49003CFF0A3E075F02D79
:10482B00A42400FFE5F03404FE7B017A0379A29007
:0B483B0002D4E4F0A3742DF0022A0563
:104846009003D07403F0E49003CFF0A3E075F02D4D
:10485600A42400FFE5F03404FE7B017A0379A290DC
:0B48660002D4E4F0A3742DF0022A0538
:104871009003D07404F0E49003CFF0A3E075F02D21
:10488100A42400FFE5F03404FE7B017A0379A290B1
:0B48910002D4E4F0A3742DF0022A050D
:10489C009003D07405F0E49003CFF0A3E075F02DF5
:1048AC00A42400FFE5F03404FE7B017A0379A29086
:0B48BC0002D4E4F0A3742DF0022A05E2
:1048C7009003D07406F0E49003CFF0A3E075F02DC9
:1048D700A42400FFE5F03404FE7B017A0379A2905B
:0B48E70002D4E4F0A3742DF0022A05B7
:1048F2009003D07407F0E49003CFF0A3E075F02D9D
:10490200A42400FFE5F03404FE7B017A0379A2902F
:0B49120002D4E4F0A3742DF0022A058B
:10491D009003D07408F0E49003CFF0A3E075F02D70
:10492D00A42400FFE5F03404FE7B017A0379A29004
:0B493D0002D4E4F0A3742DF0022A0560
:104948009003D07409F0E49003CFF0A3E075F02D44
:10495800A42400FFE5F03404FE7B017A0379A290D9
:0B49680002D4E4F0A3742DF0022A0535
:104973009003D0740AF0E49003CFF0A3E075F02D18
:10498300A42400FFE5F03404FE7B017A0379A290AE
:0B49930002D4E4F0A3742DF0022A050A
:10499E009003D0740BF0E49003CFF0A3E075F02DEC
:1049AE00A42400FFE5F03404FE7B017A0379A29083
:0B49BE0002D4E4F0A3742DF0022A05DF
:1045A3009003CFE004F0E075F00584E5F0F07BFFC5
:1045B3007A3F7963E0FFE4FCFDFE122FD79003CF2F
:1045C300E075F009A424AAF582E43403F583E0FF3F
:0D45D300E4FCFDFE7BFF7A3F7972022FD7DA
:05428C009002D1EFF0EB
:10429100E4A3F0A3F09002D2F0A3F09002D2E0FEEA
:1042A100A3E0FFC39415EE94005042EF7802C333AC
:1042B100CE33CED8F9FF24D7F58274033EF583E0DF
:1042C100FD9002D1E0FCEDB5041374D82FF5827492
:1042D100033EF583A3E0FAA3E0F9120B239002D386
:0D42E100E004F070B69002D2E004F080AE70
:0142EE0022AD
:1042EF009003CFE075F009A424A4F582E43403F51C
:1042FF0083E0FEA3E0FF123D6F9003CFE075F0095E
:10430F00A424A6F582E43403F583E0FEA3E0FF12B4
:10431F00406C9003CFE075F009A424A8F582E43433
:10432F0003F583E0FEA3E0FF123E909003CFE0FF82
:10433F0075F009A424AAF582E43403F583E0FD02A5
:02434F0046B373
:102E1100FCFD1209839002D1E0FBA3E0FAA3E0F9E3
:0B2E21009002E2EBF0A3EAF0A3E9F05E
:102E2C009002EC12098F00000000E47B04FAF9F820
:102E3C009002E8E0FCA3E0FDA3E0FEA3E0FF120893
:102E4C00019002F01209839002E2E0F9A3E0FAA3E8
:102E5C00E09002F4C9F0A3EAF0A3E9F09002E5E0F7
:102E6C00F9A3E0FAA3E09002F7C9F0A3EAF0A3E912
:102E7C00F09002EC12098F000000009002F0E0FCD0
:102E8C00A3E0FDA3E0FEA3E0FF9002ECE0F8A3E0DA
:102E9C00F9A3E0FAA3E0FBC31208A14003022F2B15
:102EAC00E47F04FEFDFC9002ECE0F8A3A3A3E01287
:102EBC0007769002F7E0FBA3E0FAA3E0F98F828E8D
:102ECC00831208E5C004C005C006C007E47F04FEF9
:102EDC00FDFC9002ECE0F8A3E0F9A3E0FAA3E0FB20
:102EEC001207769002F4E0FBA3E0FAA3E0F98F82DC
:102EFC008E83D007D006D005D00412092F9002EC97
:102F0C00E0FCA3E0FDA3E0FEA3E02401FFE43EFE11
:102F1C00E43DFDE43CFC9002EC120983022E879008
:102F2C0002ECE0FCA3E0FDA3E0FEA3E0FFE47B04E5
:102F3C00FAF9F8120776806C9002E8E0FCA3E0FD49
:102F4C00A3E0FEA3E0FFA3E0F8A3E0F9A3E0FAA35B
:102F5C00E0FBC31208A150549002ECA3A3E0FEA323
:102F6C00E0FF9002F7E0FBA3E0FAA3E0F98F828E7A
:102F7C0083120577FDC0059002F4E0FBA3E0FAA3F1
:102F8C00E0F98F828E83D0E01205B69002ECE0FC63
:102F9C00A3E0FDA3E0FEA3E02401FFE43EFEE43D3C
:102FAC00FDE43CFC9002EC120983808C9002E8A3B7
:102FBC00E0FDA3E0FEA3E0FF9002F4E0FBA3E0FA47
:0A2FCC00A3E02FF9EA3EFAEB3DFB0B
:012FD60022D8
:0F2A05009002D1EBF0A3EAF0A3E9F0AD07AC0625
:102A1400E49002D6F0A3F0A3F0A3F0A3F0A3F0A3F4
:102A2400F0A3F0A3F09002D5E02DFF9002D4E03C97
:102A3400FED3EF94FFEE940F40037F1022ECC313F8
:102A440025E09002D7F0A3E4F0AF05EC5401FEA317
:102A5400F0A3EFF09002D4E0FCA3E0FD2FFFEC3EE6
:102A6400FED3EF9400EE94024010E42FEE34FEC344
:102A740013FF9002DBE4F0A3EFF09002D9E0FEA391
:102A8400E02DFFEC3E54019002DDF0A3EFF07B015A
:102A94007A0079007D007C02121DB19002DFEBF018
:102AA400A3EAF0A3E9F04A70037F03229002D7E07F
:102AB400FEA3E0FF9002DFE0FBA3E0FAA3E0F990BD
:102AC40002E77402F0A3E4F012464F9002D4E0FE51
:102AD400A3E0FF9002DAE02FFF9002D9E03EFED39C
:102AE400EF9400EE94025003022BDF9002DFE0FB30
:102AF400A3E0FAA3E0F99002D9E0FEA3E0FFE92FF6
:102B0400F9EA3EFA9002E5EBF0A3EAF0A3E9F0C398
:102B1400E49FFF74029EFEE4A3122E119002D9E0FA
:102B2400FEA3E0FFC3E49FFF74029E9002D28FF0E5
:102B340080609002DB74FFF5F012067945F060576F
:102B44009002D8E02400F09002D7E03402F0E0FED6
:102B5400A3E0FF9002DFE0FBA3E0FAA3E0F9900218
:102B6400E77402F0A3E4F012464F9002DFE0F9A309
:102B7400E0FAA3E09002E5C9F0A3EAF0A3E9F0A328
:102B840012098F00000200122E169002D2740275F0
:102B9400F000120663809B9002D8E02400F09002BB
:102BA400D7E03402F0E0FEA3E0FF9002DFE0FBA3F5
:102BB400E0FAA3E0F99002E77402F0A3E4F012460D
:102BC4004F9002DFE0F9A3E0FAA3E09002E5C9F038
:102BD400A3EAF0A3E9F09002DD80279002DFE0FB96
:102BE400A3E0FAA3E0F99002D9E0FEA3E0FFE92F05
:102BF400F9EA3EFA9002E5EBF0A3EAF0A3E9F090DB
:102C040002D4E0FEA3E0FFE49002E8122E11900249
:102C1400DFE0F9A3E0FAA3E09002E5C9F0A3EAF04B
:102C2400A3E9F07B017A007900120C1F9002D6E030
:012C3400FFA0
:012C3500227C
:0F2112009002D1EBF0A3EAF0A3E9F0AD07AC0621
:10212100E49002D6F0A3F0A3F0A3F0A3F0A3F0A3F0
:10213100F0A3F0A3F09002D5E02DFF9002D4E03C93
:10214100FED3EF94FFEE940F40037F1022ECC313F4
:1021510025E09002D7F0A3E4F0AF05EC5401FEA313
:10216100F0A3EFF09002D4E0FCA3E0FD2FFFEC3EE2
:10217100FED3EF9400EE94024010E42FEE34FEC340
:1021810013FF9002DBE4F0A3EFF09002D9E0FEA38D
:10219100E02DFFEC3E54019002DDF0A3EFF07B0156
:1021A1007A0079007D007C021245649002DFEBF039
:1021B100A3EAF0A3E9F04A70037F03229002D7E07B
:1021C100FEA3E0FF9002DFE0FBA3E0FAA3E0F990B9
:1021D10002E77402F0A3E4F012464F9002D7E0FE4A
:1021E100A3E0FF124BD59002D4E0FEA3E0FF9002E2
:1021F100DAE02FFF9002D9E03EFED3EF9400EE9497
:102201000250030223C59002DFE0FBA3E0FAA3E042
:10221100F99002D9E0FEA3E0FFE92FF9EA3EFAC006
:1022210003C002C0019002D1E0F9A3E0FAA3E0905B
:1022310002E5C9F0A3EAF0A3E9F0C3E49FFF740249
:102241009EFEE4FCFDA3120983D001D002D003124B
:102251002E219002D6E0FEC006A3E0FEA3E0FF908F
:1022610002DFE0FBA3E0FAA3E0F99002E77402F0D9
:10227100A3E4F01238ADD0E04F9002D6F09002D92D
:10228100E0FEA3E0FFC3E49FFF74029E9002D28FA1
:10229100F00223319002DB74FFF5F012067945F06C
:1022A10070030223379002D8E02400F09002D7E0B7
:1022B1003402F0E0FEA3E0FF9002DFE0FBA3E0FACE
:1022C100A3E0F99002E77402F0A3E4F012464F9004
:1022D10002D7E0FEA3E0FF124BD59002D1E0F9A3B3
:1022E100E0FAA3E09002E5C9F0A3EAF0A3E9F0A3C4
:1022F10012098F000002009002DF122E199002D6FF
:10230100E0FEC006A3E0FEA3E0FF9002DFE0FBA336
:10231100E0FAA3E0F99002E77402F0A3E4F01238C6
:10232100ADD0E04F9002D6F09002D2740275F00069
:102331001206630222959002D8E02400F09002D7A1
:10234100E03402F0E0FEA3E0FF9002DFE0FBA3E057
:10235100FAA3E0F99002E77402F0A3E4F012464F09
:102361009002D7E0FEA3E0FF124BD59002D1E0F935
:10237100A3E0FAA3E09002E5C9F0A3EAF0A3E9F033
:102381009002DDE0FEA3E0FFE4FCFD9002E812090B
:10239100839002DF122E199002D6E0FEC006A3E060
:1023A100FEA3E0FF9002DFE0FBA3E0FAA3E0F990D7
:1023B10002E77402F0A3E4F01238ADD0E04F9002CE
:1023C100D6F0806D9002DFE0FBA3E0FAA3E0F99084
:1023D10002D9E0FEA3E0FFE92FF9EA3EFAC003C00B
:1023E10002C0019002D1E0F9A3E0FAA3E09002E576
:1023F100C9F0A3EAF0A3E9F09002D4E0FEA3E0FF64
:10240100E4FCFD9002E8120983D001D002D003124E
:102411002E219002D7E0FEA3E0FF9002DFE0FBA3B4
:10242100E0FAA3E0F99002E77402F0A3E4F01238B5
:10243100AD9002DFE0F9A3E0FAA3E09002E5C9F074
:10244100A3EAF0A3E9F07B017A007900120C1F9056
:0424510002D6E0FFD0
:012455002264
:10160300000000C100810040000100C000800041D3
:10161300000100C000800041000000C100810040C3
:10162300000100C000800041000000C100810040B3
:10163300000000C100810040000100C000800041A3
:10164300000100C000800041000000C10081004093
:10165300000000C100810040000100C00080004183
:10166300000000C100810040000100C00080004173
:10167300000100C000800041000000C10081004063
:10168300000100C000800041000000C10081004053
:10169300000000C100810040000100C00080004143
:1016A300000000C100810040000100C00080004133
:1016B300000100C000800041000000C10081004023
:1016C300000000C100810040000100C00080004113
:1016D300000100C000800041000000C10081004003
:1016E300000100C000800041000000C100810040F3
:1016F300000000C100810040000100C000800041E3
:10170300000100C000800041000000C100810040D2
:10171300000000C100810040000100C000800041C2
:10172300000000C100810040000100C000800041B2
:10173300000100C000800041000000C100810040A2
:10174300000000C100810040000100C00080004192
:10175300000100C000800041000000C10081004082
:10176300000100C000800041000000C10081004072
:10177300000000C100810040000100C00080004162
:10178300000000C100810040000100C00080004152
:10179300000100C000800041000000C10081004042
:1017A300000100C000800041000000C10081004032
:1017B300000000C100810040000100C00080004122
:1017C300000100C000800041000000C10081004012
:1017D300000000C100810040000100C00080004102
:1017E300000000C100810040000100C000800041F2
:1017F300000100C000800041000000C100810040E2
:10180300000000C000C1000100C30003000200C2C9
:1018130000C60006000700C7000500C500C4000499
:1018230000CC000C000D00CD000F00CF00CE000E49
:10183300000A00CA00CB000B00C90009000800C859
:1018430000D80018001900D9001B00DB00DA001AC9
:10185300001E00DE00DF001F00DD001D001C00DC99
:10186300001400D400D5001500D70017001600D6C9
:1018730000D20012001300D3001100D100D00010D9
:1018830000F00030003100F1003300F300F20032C9
:10189300003600F600F7003700F50035003400F499
:1018A300003C00FC00FD003D00FF003F003E00FE49
:1018B30000FA003A003B00FB003900F900F8003859
:1018C300002800E800E9002900EB002B002A00EAC9
:1018D30000EE002E002F00EF002D00ED00EC002C99
:1018E30000E40024002500E5002700E700E60026C9
:1018F300002200E200E3002300E10021002000E0D9
:1019030000A00060006100A1006300A300A20062C8
:10191300006600A600A7006700A50065006400A498
:10192300006C00AC00AD006D00AF006F006E00AE48
:1019330000AA006A006B00AB006900A900A8006858
:10194300007800B800B9007900BB007B007A00BAC8
:1019530000BE007E007F00BF007D00BD00BC007C98
:1019630000B40074007500B5007700B700B60076C8
:10197300007200B200B3007300B10071007000B0D8
:1019830000500090009100510093005300520092C8
:101993000096005600570097005500950094005498
:1019A300009C005C005D009D005F009F009E005E48
:1019B300005A009A009B005B009900590058009858
:1019C3000088004800490089004B008B008A004AC8
:1019D300004E008E008F004F008D004D004C008C98
:1019E30000440084008500450087004700460086C8
:1019F30000820042004300830041008100800040D8
:104223009002D1EBF0A3EAF0A3E9F0A3ECF0A3ED45
:01423300F09A
:10423400A3E0FCA3E0FDECFF9002D474FFF5F012C0
:10424400067945F0603D9002D1E0FBA3E475F001EE
:10425400120679A9F0FA12055E6FFE75F002A42425
:1042640003F582E5F03416F5837401936DFF75F060
:1042740002EEA42403F582E5F03418F58374019367
:07428400FD80B5EFFEEDFF28
:01428B002210
:10129900608A024100000000000000000000000018
:1012A9000000000000000000000000000000000035
:1012B9000000000000000000000000000000000025
:1012C9000000000000000000000000000000000015
:1012D9000000000000000000000000000000000005
:1012E90000000000000000000000000000000000F5
:1012F90000000000000000000000000000000000E5
:1013090000000000000000000000000000000000D4
:101319000000000000000000000000000000420280
:10132900CB000042023F0000C1044402110000004A
:101339000060290216000000000000000000000003
:101349000000000000000000000000000000000094
:0E135900000000000000000000000000000086
:0A00910043AF2075D4F875D5302276
:10004E0012009143CE8043CE4053CEDF43CE1053A9
:10005E00CEF743CE04E5CE54FC4403F5CE43AF02B7
:10006E00E4900218F090021CF0A3F0A3F0A3F0901D
:10007E000217F090023BF0A3F0A3F0A3F09002164B
:03008E0004F02259
:083FF900900219E0FFA3E0FDB6
:10400100E49002D1F0EF2D14D39431505DED2403EF
:10401100FBE433FAD3EB940DEA64809480504BE4D3
:10402100FEEEC39D501074212EF582E43402F58317
:10403100EFF00F0E80EB74212DF582E43402F5834D
:10404100747EF074222DF582E43402F583747FF0DE
:1040510074232DF582E43402F58374FAF0E49002BE
:0A4061001BF0A3F0900221E0F5CF60
:01406B002232
:10399D009002187402F0E4A3F0A37404F0900219DD
:0A39AD00E0FF7B017A02793B7D0404
:0839B7009002D1EFF0A3EDF046
:1039BF00E49002D4F0EF2D14D394034003023A8A1B
:1039CF009002D2E025E0FFE433FEEF2403FFE43E54
:1039DF00FED3EF940DEE648094804003023A8A90F8
:1039EF0002D37401F09002D2E025E0FFE433FEA38E
:1039FF00E0D39FEE6480F8748098504AA3E0701172
:103A0F0012055E540F9002D5F09002D47401F0802D
:103A1F001712055E54F0C4540F9002D5F0E49002D3
:103A2F00D4F00429F9E43AFA9002D5E024C0FF90CB
:103A3F0002D3E02421F582E43402F583EFF0900203
:103A4F00D3E004F0809F9002D1E02480900221F017
:103A5F009002D3E0FF2421F582E43402F58374EF62
:103A6F00F074222FF582E43402F58374FAF0E490B7
:0B3A7F00021BF0A3F0900221E0F5CF45
:013A8A002219
:1024560090021CE064016003022680900218E0FFEF
:1024660064016008EF6403600302265774FF90025C
:10247600CFF0A3F0E49002CEF090021AE0FF9002B3
:10248600CEE0FEC39F505774212EF9E43402FA7B46
:1024960001A3E0FFA3E09002D6CFF0A3EFF07D0109
:1024A6007C001242239002CFEEF0A3EFF09002CE12
:1024B600E0242FF9E43402FA7B01A3E0FFA3E090C5
:1024C60002D6CFF0A3EFF07D017C001242239002EA
:1024D600CFEEF0A3EFF09002CEE004F0809B9002E6
:1024E600CFE0FEA3E0FFFD90021AE0FC242FF58268
:1024F600E43402F583E0FBED6B60030225F7EEFFA3
:1025060074302CF582E43402F583E0FEEF6E60034E
:102516000225F7900218E0640160030225B99002D3
:10252600CEF090021AE0C313FF9002CEE0F9C39FEB
:1025360040030225E5E925E0FD2430F582E4340276
:10254600F583E0FE742F2DF582E43402F583E07CFA
:10255600002400FFEC3EFEE924FD50046044804A5E
:10256600E4B5071DEEB480199002CEE075F045A4DF
:102576002460F582E43402F5837480F0A3E4F080ED
:1025860029EF2405FFE43EFE7C007D0A12062D900D
:1025960002CEE075F045A42460F582E43402F583AA
:1025A60080039002CBEEF0A3EFF09002CEE004F0B1
:1025B600022528900230E0FE90022FE07C002400E5
:1025C600FFEC3E9002CBF0A3EFF0900236E0FE90D7
:1025D6000235E02400FFEC3E90023FF0A3EFF0E46A
:1025E60090021FF090021DF0900218F090021780E2
:1025F6007D90021FE0C3940550028042900215E0D0
:10260600C39405502A53C8EFE004F0E490021FF08B
:102616009002CEF0009002CEE004F0E0B40AF5435A
:10262600C810124BE8900211120983D204801A9046
:10263600021D7401F090021FE0C394C85005E00427
:10264600F080069002157404F090021E7401F0806A
:1026560022900218E0B4021BE490021FF090021DC3
:10266600F0900218F0900217F090023DF0A3F0905F
:102676000215F0E490021CF08050900218E0704AB7
:10268600900220E0C3940A404190023DE07002A30C
:10269600E060069002177402F0900220E0C3946492
:1026A6004008900217E0700204F0900217E024FE42
:1026B60060150470159002187401F0E4A3F0A37479
:1026C60008F0123FF9800312399D900216E070124D
:1026D60090021EF0A3F090021DF0900218F09002F6
:1026E60017F090021EE0640170562004269002172F
:1026F600E024FE60150470159002187401F0E4A33E
:10270600F0A37408F0123FF9800312399DE4900299
:102716001EF022124BE8900211E0F8A3E0F9A3E0C4
:10272600FAA3E0FBC3EF9BFFEE9AFEED99FDEC9852
:10273600FCE47BB87A0BF9F8D31208A15002C20464
:012746002270
:03004B00023685F5
:10368500C0E0C0F0C083C082C0D075D000C000C00B
:0D36950001C002C003C004C005C006C0078C
:1036A2009002CDE4F075CDC090021BE0242EF5828D
:1036B200E43402F583E5CFF090021BE004F09002BF
:1036C20018E0FF64016004EFB40303023756EF64AD
:1036D20002600302376190021BE0D39401407AE05A
:1036E200FF241FF582E43402F583E0FE742D2FF5EA
:1036F20082E43402F583E06E605AEE64EF60559026
:10370200021FE0C394055002803A900215E0C39470
:1037120005502253C8EFE004F090021FE4F0FF00CE
:103722000FEFB40AFA43C810124BE89002111209C3
:1037320083D204801A90021D7401F090021FE0C32C
:1037420094C85005E004F080069002157404F090CD
:10375200021E80089002CD80039002CD7401F09089
:1037620002CDE0601D90021BE02420F582E43402C9
:10377200F583E064FA600543D108800690021C7468
:0237820001F054
:10378400D007D006D005D004D003D002D001D00099
:0B379400D0D0D082D083D0F0D0E03243
:03009B000249F225
:1049F200C0E0C083C082C0D053D1F753EFFD900214
:104A02001BE02421F582E43402F583E0F5CFD0D017
:074A1200D082D083D0E03216
:1040DC00706172616D2E6B657976616C203D202567
:1040EC00640D0A007761697465496E657266616377
:1040FC0065204C3A2025640D0A0077616974654986
:10410C006E65726661636520533A2025640D0A0062
:10411C0066616365436C6F73650D0A006661636568
:10412C00436C6F7365204C3A2025640D0A00666160
:10413C006365436C6F736520533A2025640D0A0048
:101367006038039900000000000000000000000042
:101377000000000000000000000000000000000066
:101387000000000000000000000000000000000056
:101397000000000000000000000000004C0381FF77
:1013A7003A8BFF4C21FF4C2DFF4C394C0375FF3C0A
:1013B700D4FF4B7DFF4A19FF4BAC4C038DFF3555CE
:1013C700FF4A77FF4A93FF4AAF44036A00000000D1
:1013D70041036E0044036F000000004103730041A6
:0313E7000374008C
:083F840090045EEEF0A3EFF0E3
:103F8C0090036AE0F8A3E0F9A3E0FAA3E0FB900445
:103F9C0055E0FCA3E0FDA3E0FEA3E0C39BFFEE9A7B
:103FAC00FEED99FDEC98FCE47BF47A01F9F8C31270
:103FBC0008A15025900455E0FCA3E0FDA3E0FEA36E
:103FCC00E0FF90036A12098390036EE070047F0196
:103FDC0080027F0090036EEFF090036EE06009901A
:0C3FEC00045EE0FEA3E0FF227EFF7FFFEA
:013FF80022A6
:104A770090003612057775F009A429F9EA35F0FA9E
:0C4A870090000B1206BAFFAEF0023D6F6B
:104A930090003612057775F009A429F9EA35F0FA82
:0C4AA30090000D1206BAFFAEF002406C4D
:104AAF0090003612057775F009A429F9EA35F0FA66
:0C4ABF0090000F1206BAFFAEF0023E900D
:1043AF0090036FE0F8A3E0F9A3E0FAA3E0FB900419
:1043BF0055E0FCA3E0FDA3E0FEA3E0C39BFFEE9A54
:1043CF00FEED99FDEC98FCE47BF47A01F9F8C31249
:1043DF0008A15028900455E0FCA3E0FDA3E0FEA344
:1043EF00E0FF90036F120983900373E070047F0165
:0C43FF0080027F00900373EFF0124B016E
:01440B00228E
:0B3555009002CEEBF0A3EAF0A3E9F037
:10356000900007120577700302367B9002CEE0FBD5
:10357000A3E0FAA3E0F9900007120577FFE4FCFD51
:10358000FE7BFF7A4079DC122FD7900374E0702124
:103590009002CEE0FBA3E0FAA3E0F9900007120549
:1035A00077D3940C500B9003747401F0E4FF124B2A
:1035B000019002CEE0FBA3E0FAA3E0F9900007122D
:1035C0000577FF1245E09002CEE0FBA3E0FAA3E00E
:1035D000F990000712057724E67022E4900374F056
:1035E000124BF77B017A037975C003C002C00190CA
:1035F00002CEE0FBA3E0FAA3E0F9120A1E900374E6
:10360000E060669002CEE0FBA3E0FAA3E0F9900050
:1036100007120577FF12428C9003CFE0FF75F00987
:10362000A424AAF582E43403F583E0FD1246B390A6
:1036300002CEE0FBA3E0FAA3E0F9900007120577C1
:10364000547FFFBF1223E4900374F0FF124B017B01
:10365000017A037981C003C002C0019002CEE0FB71
:10366000A3E0FAA3E0F9120A1E9002CEE0FBA3E069
:10367000FAA3E0F9900007E40205B6900374E07045
:04368000031243AF3F
:013684002223
:103A8B009002CEEBF0A3EAF0A3E9F09002CEE0FBBC
:103A9B00A3E0FAA3E0F99000071205777003023B4D
:103AAB005A30E71A9000071205777E00547FFFE427
:103ABB00FCFD7BFF7A4079F0122FD7023B48900236
:103ACB00CEE0FBA3E0FAA3E0F9900007120577FF25
:103ADB00E4FCFDFE7BFF7A417906122FD79002CED4
:103AEB00E0FBA3E0FAA3E0F990000712057724E6C8
:103AFB00602824087047900008120577703F7B01FF
:103B0B007A03798DC003C002C0019002CEE0FBA303
:103B1B00E0FAA3E0F9120A1E80237B017A03797580
:103B2B00C003C002C0019002CEE0FBA3E0FAA3E009
:103B3B00F9120A1E7BFF7A41791C12461C9002CEA9
:103B4B00E0FBA3E0FAA3E0F9900007E41205B6222C
:0C4C21009000031206BAFFAEF0023D6FD7
:0C4C2D00900005120577FF7E0002406C2D
:0C4C3900900006120577FF7E00023E90FE
:103CD4009002CEEBF0A3EAF0A3E9F09002CEE0FB71
:103CE400A3E0FAA3E0F9900007120577607C30E7BF
:103CF400199000071205777E00547FFFE4FCFD7BDA
:103D0400FF7A417928122FD7804E9002CEE0FBA390
:103D1400E0FAA3E0F9900007120577FFE4FCFDFE4A
:103D24007BFF7A41793A122FD79002CEE0FBA3E0D1
:103D3400FAA3E0F990000712057724E6701A7B01D4
:103D44007A037981C003C002C0019002CEE0FBA3D4
:103D5400E0FAA3E0F9120A1E9002CEE0FBA3E0FA17
:0B3D6400A3E0F9900007E41205B6226E
:104B7D009000071205779000071205B6E4900431F6
:084B8D00F0A3F0A3F0A3F02255
:104A19009000071205779000071205B6124C4590D1
:104A2900043BE090042BF0900446E090042CF0A3A2
:024A3900F02269
:104BAC009000071205779000071205B6E490042ECA
:064BBC00F0A3F0A3F022BB
:10002600C9EAC7EBB4F3D0A13A25640D0A0066729B
:100036006565206572726F2C616464723D20257857
:030046000D0A00A0
:1013EA004D000000000000000000000000000000A6
:1013FA006204000D00000000000000000000000070
:10140A0000000000000000000000000000000000D2
:10141A0000000000000000000000000000000000C2
:10142A0000000000000000000000000000000000B2
:10143A0000000000000000000000000000000000A2
:10144A000000000000000000000000000000000092
:10145A000000000000000000000000000000000082
:10146A000000000000000000000000000000000072
:10147A000000000000000000000000000000000062
:10148A000000000000000000000000000000000052
:10149A000000000000000000000000000000000042
:1014AA000000000000000000000000000000000032
:1014BA000000000000000000000000000000000022
:1014CA000000000000000000000000000000000012
:1014DA000000000000000000000000000000000002
:1014EA0000000000000000000000000000000000F2
:1014FA0000000000000000000000000000000000E2
:10150A0000000000000000000000000000000000D1
:10151A0000000000000000000000000000000000C1
:10152A0000000000000000000000000000000000B1
:10153A0000000000000000000000000000000000A1
:10154A000000000000000000000000000000000091
:10155A000000000000000000000000000000000081
:10156A000000000000000000000000000000000071
:10157A000000000000000000000000000000000061
:10158A000000000000000000000000000000000051
:10159A000000000000000000000000000000000041
:1015AA000000000000000000000000000000000031
:1015BA000000000000000000000000000000000021
:1015CA000000000000000000000000000000000011
:1015DA000000000000000000000000000000000001
:1015EA0000000000000000000000000000000000F1
:0815FA000000000000000000E9
:103B5B009002CEEBF0A3EAF0A3E9F0A3E0FBA3E025
:103B6B00FAA3E0F9C003C002C0019002CEE0FBA3B0
:103B7B00E0FAA3E0F9120A1E9002D1E0FBA3E0FAEF
:103B8B00A3E0F9A3E0FEA3E0FFE92FF9EA3EFAC0B8
:103B9B0003C002C0019002CEE0FBA3E0FAA3E0F960
:103BAB00900003120A9D9002D1E0FBA3E0FAA3E080
:103BBB00F9C003C002C0019002CEE0FBA3E0FAA360
:103BCB00E0F9900006120A9D9002CEE0FBA3E0FA0A
:103BDB00A3E0F99000091209DA000000049002D169
:103BEB00E0FBA3E0FAA3E0F9900002EE8FF01207DE
:103BFB00499002CEE0FBA3E0FAA3E0F99000091292
:103C0B0008E5C39002D5E09FFF9002D4E09EF990A7
:0F3C1B0002D1E0FBA3E0FAA3E0C98FF002072A71
:08274700E0FBA3E0FAA3E0F9B6
:0B274F009002F7EBF0A3EAF0A3E9F022
:10275A00900006120A6D9002FDEBF0A3EAF0A3E9DD
:10276A00F09002FAE0F9A3E0FAA3E0900300C9F0BE
:10277A00A3EAF0A3E9F0A3E4F0A3F0A3F09002F730
:10278A00E0FBA3E0FAA3E0F9900003120A6DC0038C
:10279A00C002C0019002F7E0FBA3E0FAA3E0F990BF
:1027AA000006120A6DD082D083D0E06B7008E9650A
:1027BA00827003EA658370529002FAE0FBA3E0FAA2
:1027CA00A3E0F9C003C002C0019002F7E0FBA3E056
:1027DA00FAA3E0F9900006120A9D9002F7E0FBA323
:1027EA00E0FAA3E0F9900003120A6DAE02AF01907D
:1027FA0002F7E0FBA3E0FAA3E0F91209FEC3EF999E
:10280A00FFEE9AFE9002FA0229F39002FDE0FBA382
:10281A00E0FAA3E0F912068FFFAEF0900300E0FBA6
:10282A00A3E0FAA3E0F912068FD39FE5F09E5003C6
:10283A000229389002FDE0FBA3E0FAA3E0F9900038
:10284A00021206BAFFAEF09002F7E0FBA3E0FAA389
:10285A00E0F91209FEE92FF9EA3EFAC003C002C004
:10286A00019002F7E0FBA3E0FAA3E0F9900003125B
:10287A000A6DD082D083D0E06B7008E9658270035C
:10288A00EA658370609002F7E0FBA3E0FAA3E0F93F
:10289A001209FEAE029002FAA3E0FAA3E0C399FF7E
:1028AA00EA9EFEA3E0FBA3E0FAA3E0F9900002EEA1
:1028BA008FF01207499002F7E0FBA3E0FAA3E0F9D0
:1028CA00900003120A6DAE02AF019002F7E0FBA37B
:1028DA00E0FAA3E0F91209FEC3EF99FFEE9AFE901F
:1028EA0003000229F39002FDE0F9A3E0FAA3E090C5
:1028FA000303C9F0A3EAF0A3E9F09002FDE0FBA309
:10290A00A3E0F99000021206BAFFAEF09002F7E0D7
:10291A00FBA3E0FAA3E0F91209FEE92FF9EA3EFA6D
:10292A009002FDEBF0A3EAF0A3E9F002281490026A
:10293A00F7E0FBA3E0FAA3E0F9900006120A6DC0E3
:10294A0003C002C0019002FDE0FBA3E0FAA3E0F994
:10295A00D082D083D0E06B7008E965827003EA65A3
:10296A00837037900300E0FBA3E0FAA3E0F9C00309
:10297A00C002C0019002F7E0FBA3E0FAA3E0F990DD
:10298A000006120A9D9002F7E0FBA3E0FAA3E0F921
:10299A001209FEAE029002FD80439002F7E0FBA30B
:1029AA00E0FAA3E0F91209FEAE029002FDA3E0FAF2
:1029BA00A3E0C399FFEA9EFEA3E0FBA3E0FAA3E02B
:1029CA00F9900002EE8FF01207499002F7E0FBA39C
:1029DA00E0FAA3E0F91209FEAE02900300A3E0FABE
:1029EA00A3E0C399FFEA9EFEA3E0FBA3E0FAA3E0FB
:0A29FA00F9900002EE8FF012074979
:012A040022AF
:101DB1009002EAECF0A3EDF09002E7EBF0A3EAF079
:031DC100A3E9F0A3
:101DC400900006120A6D9002ECEBF0A3EAF0A3E98E
:101DD400F0A3EBF0A3EAF0A3E9F09002E7E0FBA3A1
:101DE400E0FAA3E0F9900003120A6DC003C002C038
:101DF400019002E7E0FBA3E0FAA3E0F990000612E9
:101E04000A6DD082D083D0E06B7008E965827003DC
:101E1400EA65837004FBFAF9229002ECE0FBA3E08C
:101E2400FAA3E0F912068FFFD39002EBE09F900231
:101E3400EAE095F05003021EC39002EFEBF0A3EA30
:101E4400F0A3E9F09000021206BAFFAEF09002E7A8
:101E5400E0FBA3E0FAA3E0F91209FEE92FF9EA3E58
:101E6400FA9002ECEBF0A3EAF0A3E9F09002E7E0C9
:101E7400FBA3E0FAA3E0F9900003120A6DC003C0CB
:101E840002C0019002ECE0FBA3E0FAA3E0F9D082E7
:101E9400D083D0E06B7008E965827003EA658360E3
:101EA40003021E1D7BFF7A0079269002EAE0FEA35E
:101EB400E0FFE4FCFD122FD77B007A00790022902A
:101EC40002ECE0FBA3E0FAA3E0F99000021206BAE8
:101ED400FF9002EFE0FBA3E0FAA3E0F9900002E533
:101EE400F08FF01207499002E7E0FBA3E0FAA3E0C9
:101EF400F99000091209539002EAE0FEA3E0FFEF13
:101F04002BFFEE3AFEE439FDE438FCC006C007A31B
:101F1400E0FBA3E0FAA3E0F912068FAEF0FBAA06F9
:101F2400E4F9F8D007D006D31208A15003022064C4
:101F34009002E7E0FBA3E0FAA3E0F990000912089D
:101F4400E59002ECE0FBA3E0FAA3E02FF9EA3EFA05
:101F5400EB3DFB9002EAE0FEA3E029F9EA3EFA90A9
:101F640002EFEBF0A3EAF0A3E9F09002E7E0FBA3B1
:101F7400E0FAA3E0F99000091208E59002ECE0FB16
:101F8400A3E0FAA3E0F912068FC39FFFE5F09EFEDB
:101F94009002EAE0FCA3E0FDC3EF9DFFEE9CF99004
:101FA40002EFE0FBA3E0FAA3E0C98FF012072A9046
:101FB40002E7E0FBA3E0FAA3E0F9900006120A6D41
:101FC400C003C002C0019002ECE0FBA3E0FAA3E06E
:101FD400F9D082D083D0E06B7008E965827003EA9F
:101FE40065839002EF7048E0FBA3E0FAA3E0F9C038
:101FF40003C002C0019002E7E0FBA3E0FAA3E0F90A
:10200400900006120A9D9002ECE0FBA3E0FAA3E024
:10201400F99000021206BAFF9002EFE0FBA3E0FA87
:10202400A3E0F9900002E5F08FF01207498018E070
:10203400F9A3E0FAA3E09002FAC9F0A3EAF0A3E955
:10204400F09002E71227479002EAE0F9A3E0FFA329
:10205400E0FBA3E0FAA3E0C98FF012072A0220EE06
:102064009002EAE0F9A3E0FFA3E0FBA3E0FAA3E017
:10207400C98FF012072A9002E7E0FBA3E0FAA3E07D
:10208400F9900006120A6DC003C002C0019002EC70
:10209400E0FBA3E0FAA3E0F9D082D083D0E06B7038
:1020A40008E965827003EA6583703F9002ECE0FB07
:1020B400A3E0FAA3E0F99000021206BAFFAEF09092
:1020C40002E7E0FBA3E0FAA3E0F91209FEE92FF925
:1020D400EA3EFAC003C002C0019002E7E0FBA3E0BD
:1020E400FAA3E0F9900006120A9D9002E7E0FBA330
:1020F400E0FAA3E0F99000091208E59002ECE0FB95
:0D210400A3E0FAA3E02FF9EA3EFAEB3DFB61
:0121110022AB
:0B0C1F009002E2EBF0A3EAF0A3E9F082
:100C2A009002E2E0FBA3E0FAA3E0F9900006120AC0
:100C3A006D9002E8EBF0A3EAF0A3E9F09002E2E09B
:100C4A00FBA3E0FAA3E0F99000091208E59002E597
:100C5A00E0FBA3E0FAA3E0C39FF9EA9EFA9002EB55
:100C6A00EBF0A3EAF0A3E9F09002E8E0F9A3E0FAD6
:100C7A00A3E09002EEC9F0A3EAF0A3E9F0A3E4F03E
:100C8A00A3F0A3F0F9A3C9F0A3F0A3E9F09002E25C
:100C9A00E0FBA3E0FAA3E0F99000091208E51209C3
:100CAA00FEE92FF9EA3EFAEB3DAF01AE02FD7C0008
:100CBA00C005C006C0079002E5E0FBA3E0FAA3E086
:100CCA00AD037800A905FBD007D006D005C31208EA
:100CDA00A140529002EBE0FBA3E0FAA3E0F912066E
:100CEA008FFF9002E5E0FBA3E0FAA3E02FF9EA35D3
:100CFA00F0AF01FEAD037C00C005C006C00790023C
:100D0A00E2E0FBA3E0FAA3E0F9900003120A6DAF58
:100D1A0001AD037800A905AB07D007D006D005C3FB
:100D2A001208A1501A9002E5E0FBA3E0FAA3E0FF43
:100D3A00AE02AD037C007BFF7A007934022FD79094
:100D4A0002E2E0FBA3E0FAA3E0F9900003120A6DC5
:100D5A00C003C002C0019002E8E0FBA3E0FAA3E0EE
:100D6A00F9D082D083D0E06B7008E965827003EA1B
:100D7A0065837003020F159002E2E0FBA3E0FAA379
:100D8A00E0F99000091208E59002E8E0FBA3E0FA16
:100D9A00A3E02FF9EA3EFAEB3DFBC003C002C00113
:100DAA009002E8E0FBA3E0FAA3E0F912068FD00173
:100DBA00D002D00329F9EA35F0FAC003C002C00113
:100DCA009002EBE0FBA3E0FAA3E0F9D082D083D053
:100DDA00E06B7008E965827003EA65836003020EBE
:100DEA00CC9002E8E0F9A3E0FAA3E09002F1C9F09E
:100DFA00A3EAF0A3E9F09002E2E0FBA3E0FAA3E0A1
:100E0A00F9900006120A6DC003C002C0019002E800
:100E1A00E0FBA3E0FAA3E0F9D082D083D0E06B70C4
:100E2A0008E965827003EA6583703F9002E8E0FB97
:100E3A00A3E0FAA3E0F99000021206BAFFAEF0901E
:100E4A0002E2E0FBA3E0FAA3E0F91209FEE92FF9B6
:100E5A00EA3EFAC003C002C0019002E2E0FBA3E04E
:100E6A00FAA3E0F9900006120A9D9002E8E0FBA3BB
:100E7A00E0FAA3E0F9C003C002C0019002EEE0FB71
:100E8A00A3E0FAA3E0F9D082D083D0E06B7008E93E
:100E9A0065827003EA658360729002E8E0FBA3E072
:100EAA00FAA3E0F99000021206BAFF9002EEE0FB04
:100EBA00A3E0FAA3E0F9900002E5F08FF0120749E7
:100ECA0080499002E8E0F9A3E0FAA3E09002EEC9B3
:100EDA00F0A3EAF0A3E9F09002E8E0FBA3A3E0F9AB
:100EEA009000021206BAFFAEF09002E2E0FBA3E025
:100EFA00FAA3E0F91209FEE92FF9EA3EFA9002E8AC
:100F0A00EBF0A3EAF0A3E9F0020D499002E2E0FB5C
:100F1A00A3E0FAA3E0F9900006120A6D9002E8EB4A
:100F2A00F0A3EAF0A3E9F09002EE0210F89002E2D0
:100F3A00E0FBA3E0FAA3E0F9900003120A6DC003F4
:100F4A00C002C0019002E8E0FBA3E0FAA3E0F9D0F6
:100F5A0082D083D0E06B7008E965827003EA65830A
:100F6A0070030211039002E2E0FBA3E0FAA3E0F9A6
:100F7A009000091208E59002EBE0FBA3E0FAA3E077
:100F8A002FF9EA3EFAEB3DFBC003C002C001900212
:100F9A00EBE0FBA3E0FAA3E0F912068FD001D0023E
:100FAA00D00329F9EA35F0FAC003C002C001900261
:100FBA00E8E0FBA3E0FAA3E0F9D082D083D0E06BAB
:100FCA007008E965827003EA658360030210BA90CB
:100FDA0002E8E0F9A3E0FAA3E09002F4C9F0A3EA78
:100FEA00F0A3E9F09002E2E0FBA3E0FAA3E0F990B3
:100FFA000006120A6DC003C002C0019002E8E0FBBD
:10100A00A3E0FAA3E0F9D082D083D0E06B7008E9BC
:10101A0065827003EA6583703F9002E8E0FBA3E013
:10102A00FAA3E0F99000021206BAFFAEF09002E2CB
:10103A00E0FBA3E0FAA3E0F91209FEE92FF9EA3E80
:10104A00FAC003C002C0019002E2E0FBA3E0FAA3E7
:10105A00E0F9900006120A9D9002E8E0FBA3E0FA8C
:10106A00A3E0F9C003C002C0019002EEE0FBA3E0D6
:10107A00FAA3E0F9D082D083D0E06B7008E96582E8
:10108A007003EA658360729002E8E0FBA3E0FAA3CA
:10109A00E0F99000021206BAFF9002EEE0FBA3E02C
:1010AA00FAA3E0F9900002E5F08FF01207498049AF
:1010BA009002E8E0F9A3E0FAA3E09002EEC9F0A3F7
:1010CA00EAF0A3E9F09002E8E0FBA3A3E0F99000BC
:1010DA00021206BAFFAEF09002E2E0FBA3E0FAA326
:1010EA00E0F91209FEE92FF9EA3EFA9002E8EBF07C
:1010FA00A3EAF0A3E9F0020F379002F1E0FBA3E0C4
:10110A00FAA3E0F9EA494B7011A3E0FBA3E0FAA3C2
:10111A00E0F9EA494B70030211C59002F4E0FBA31F
:10112A00E0FAA3E0F9EA494B60369002E2E0FBA359
:10113A00E0FAA3E0F99000091208E59002F4E0FB56
:10114A00A3E0FAA3E0F912068F2FFFEE35F0FE9026
:10115A0002EBE0FBA3E0FAA3E0F9EE8FF01206F24D
:10116A009002F1E0FBA3E0FAA3E0F9EA494B604BF5
:10117A009002E2E0FBA3E0FAA3E0F990000912086A
:10118A00E59002EBE0FBA3E0FAA3E0F912068F2F49
:10119A00FFEE35F0FE9002F1E0FBA3E0FAA3E0F9DE
:1011AA00EE8FF01206F29002F1E0F9A3E0FAA3E062
:1011BA009002EBC9F0A3EAF0A3E9F09002EBE0F9A0
:1011CA00A3E0FAA3E09002FAC9F0A3EAF0A3E9F0D7
:0611DA009002E21227471B
:0111E00022EC
:0F341D009002E7EBF0A3EAF0A3E9F0A312098312
:10342C009002EE12098F00000000E47B04FAF9F818
:10343C009002EAE0FCA3E0FDA3E0FEA3E0FF12088B
:10344C00019002F21209839002E7E0F9A3E0FAA3DB
:10345C00E09002F6C9F0A3EAF0A3E9F09002EE12B4
:10346C00098F000000009002F2E0FCA3E0FDA3E055
:10347C00FEA3E0FF9002EEE0F8A3E0F9A3E0FAA3CC
:10348C00E0FBC31208A15049E47F04FEFDFC90024E
:10349C00EEE0F8A3A3A3E01207769002F6E0FBA3FC
:1034AC00E0FAA3E0F98F828E831209DA00000000A3
:1034BC009002EEE0FCA3E0FDA3E0FEA3E02401FFFC
:1034CC00E43EFEE43DFDE43CFC9002EE12098380F8
:1034DC00959002EEE0FCA3E0FDA3E0FEA3E0FFE488
:1034EC007B04FAF9F812077680569002EAE0FCA306
:1034FC00E0FDA3E0FEA3E0FFA3E0F8A3E0F9A3E066
:10350C00FAA3E0FBC31208A1503E9002EEA3A3E085
:10351C00FEA3E0FF9002F6E0FBA3E0FAA3E0F98F34
:10352C00828E83E41205B69002EEE0FCA3E0FDA3CC
:10353C00E0FEA3E02401FFE43EFEE43DFDE43CFCA0
:08354C009002EE12098380A237
:013554002254
:084564009002E2ECF0A3EDF07F
:10456C00121DB19002E4EBF0A3EAF0A3E9F04A4B80
:10457C0060199002E4E0FBA3E0FAA3E0F99002E2F8
:10458C00E0FEA3E0FFE4FCFD12341D9002E4E0FB2E
:06459C00A3E0FAA3E0F920
:0145A20022F6
:10009E00020453E86480F8E933E83360110460F039
:1000AE00ED33EC337009E8FCE9FDEAFEEBFF2204C8
:1000BE0060DED3EB9FEA9EE99DE8C2E78CF0C2F7C3
:1000CE0095F0400CE8CCF8E9CDF9EACEFAEBCFFB8F
:1000DE0012041E85D0F05804700320D5B3E80470C6
:1000EE00075002B2D502045D92D5EC0460F7E4CC61
:1000FE00C0E0C398F8603B94186008400DD0E0FB58
:10010E00020435E4FBFAC9FC8028E830E406E4C9B1
:10011E00FBE4CAFCE830E305E4C9CACBFCE85407AB
:10012E006010F8C3E913F9EA13FAEB13FBEC13FCB6
:10013E00D8F130F52FC3E49CFCEF9BFFEE9AFEED59
:10014E0099FDD0E0FBEF4E4D4C701222DB03020402
:10015E005AEC2CFCEF33FFEE33FEED33FDED30E7C2
:10016E00EB020435EF2BFFEE3AFEED39FDD0E0FB4E
:10017E0050130BBB000302045DED13FDEE13FEEFF7
:08018E0013FFEC13FC02043521
:10019600EC4D6011E8497017ED33EC3304600DE463
:1001A600FCFFFEFD22E933E8330470F80204531223
:1001B600041E58046009E4CC248150062850090224
:1001C600045D28400302045AC0E0EB4A7044B9803B
:1001D60006D0E0FB020449EF4E701CBD8008EBFF21
:1001E600EAFEE9FD80EBE98DF0A4FEE5F002027F70
:1001F600E9CDF9EAFEEBFFEF89F0A4FCE5F0CE8944
:10020600F0A42EFFE435F0CD89F0A42DFEE435F000
:100216008067EF4E7005BD80D780C3EF8BF0A4AC2E
:10022600F0EE8BF0A42CFCE435F0F8EF8AF0A42C69
:10023600E5F038FCE433CB8DF0A42CFCE5F03BF87C
:10024600EE8AF0A42CFCE5F038F8E433CF89F0A46C
:100256002CFCE5F038CF3400CE89F0A42FFFE5F072
:100266003EFEE433C98DF0A42EFEE5F039CD8AF0CA
:10027600A42FFFE5F03EFEE43DFD33D0E0FB500742
:100286000BBB000F02045DEC2CFCEF33FFEE33FEDC
:06029600ED33FD0204350A
:10029C0002045DEC5D046005E8590470030204532C
:1002AC0012041E580460F6EC4860F2EC7004FDFE7B
:1002BC00FF22C860DB2481C85009C3986002500635
:1002CC0002045A9850CAF582E9294B4A7005AB8250
:1002DC0002044975F0007C1A7880C3EF9BEE9AED0E
:1002EC0099400DC3EF9BFFEE9AFEED99FDE842F0AD
:1002FC00DC23ACF0D0E0FFD0E0FED0E0FDAB822000
:10030C00E7101BEB60BAEC2CFCEF33FFEE33FEED89
:10031C0033FD020435E803F830E705C0F075F00052
:10032C00EF2FFFEE33FEED33FD40B830E7C280AA6D
:10033C0074F8CC6480CCC86480C8F582046043C374
:10034C00EB9FF5F0EA9E42F0E99D42F0E89C45F007
:10035C0060305018E5825FFFE582F42B5582FB502C
:10036C00210ABA001D09B90019088016E5825BFB49
:10037C00E582F42F5582FF50090EBE00050DBD001D
:10038C00010CC3EB9FF5F0EA9E42F0E99D42F0E8C8
:0D039C009C45F06007CC4820E701B3EC223F
:1003A90075F020800E75F010800575F0087D007ECF
:1003B900007F003392D530D503120893EC334010F7
:1003C900EF33FFEE33FEED33FDEC33FCD5F0ED22D8
:0E03D900E5F0247EA2D513CC92E7CDCEFF2214
:1003E700EDD2E7CD33EC3392D524814006E4FFFE0E
:1003F700FDFC22FCE4CFCECDCC24E0501174FF806D
:10040700EDC3CC13CCCD13CDCE13CECF13CF047009
:07041700F030D5DE0208936E
:10041E00E9D2E7C933E833F892D5EDD2E7CD33EC24
:07042E0033FC5002B2D5229D
:10043500EC30E7100FBF000C0EBE00080DBD000428
:100445000BEB6014A2D5EB13FCED92E7FD2274FFD4
:10045500FCFDFEFF22E480F8A2D574FF13FC7D802D
:03046500E480EF41
:03000000023E04B9
:0C3E0400787FE4F6D8FD758120023E4B6B
:10046800E709F608DFFA8046E709F208DFFA803E76
:1004780088828C83E709F0A3DFFA8032E309F60863
:10048800DFFA8078E309F208DFFA807088828C83CB
:10049800E309F0A3DFFA806489828A83E0A3F6087F
:1004A800DFFA805889828A83E0A3F208DFFA804C59
:1004B80080D280FA80C680D4806980F28033801030
:1004C80080A680EA809A80A880DA80E280CA803399
:1004D80089828A83ECFAE493A3C8C582C8CCC58311
:1004E800CCF0A3C8C582C8CCC583CCDFE9DEE780E1
:1004F8000D89828A83E493A3F608DFF9ECFAA9F060
:10050800EDFB2289828A83ECFAE0A3C8C582C8CCB5
:10051800C583CCF0A3C8C582C8CCC583CCDFEADECE
:10052800E880DB89828A83E493A3F208DFF980CC30
:1005380088F0EF60010E4E60C388F0ED2402B40429
:100548000050B9F582EB2402B4040050AF232345D0
:0605580082239004B87339
:10055E00BB010689828A83E0225002E722BBFE029B
:09056E00E32289828A83E49322CE
:10057700BB010CE58229F582E5833AF583E0225039
:1005870006E92582F8E622BBFE06E92582F8E22283
:0D059700E58229F582E5833AF583E493229D
:1005A400BB010689828A83F0225002F722BBFE0136
:0205B400F32230
:1005B600F8BB010DE58229F582E5833AF583E8F07B
:1005C600225006E92582C8F622BBFE05E92582C827
:0205D600F2220F
:1005D800BC000BBE0029EF8DF084FFADF022E4CC07
:1005E800F875F008EF2FFFEE33FEEC33FCEE9DECD0
:1005F800984005FCEE9DFE0FD5F0E9E4CEFD22ED16
:10060800F8F5F0EE8420D21CFEADF075F008EF2F5F
:10061800FFED33FD4007985006D5F0F222C398FD50
:050628000FD5F0EA22ED
:10062D00C2D5EC30E709B2D5E4C39DFDE49CFCEEE8
:10063D0030E715B2D5E4C39FFFE49EFE1205D8C383
:10064D00E49DFDE49CFC80031205D830D507C3E47E
:06065D009FFFE49EFE2257
:10066300C5F0F8A3E028F0C5F0F8E5821582700222
:060673001583E038F022BF
:10067900A3F8E0C5F025F0F0E58215827002158334
:06068900E0C838F0E82291
:10068F00BB010A89828A83E0F5F0A3E02250068736
:10069F00F009E71922BBFE07E3F5F009E3192289F8
:0B06AF00828A83E493F5F0740193222B
:1006BA00BB0110E58229F582E5833AF583E0F5F07E
:1006CA00A3E0225009E92582F886F008E622BBFE5B
:1006DA000AE92582F8E2F5F008E222E5832AF583A1
:0806EA00E993F5F0A3E9932266
:1006F200BB010789828A83020663500B09C5F02772
:10070200F7C5F01937F722BBFE0D09F8E325F0F320
:10071200C5F019E338F322F889828A83740193259C
:08072200F0C5F0F8E493382261
:10072A00BB010A89828A83F0E5F0A3F0225006F71A
:0F073A0009A7F01922BBFE06F3E5F009F3192217
:10074900F8BB0111E58229F582E5833AF583E8F0E2
:10075900E5F0A3F0225009E92582C8F608A6F0229F
:0D076900BBFE09E92582C8F2E5F008F22286
:10077600E88FF0A4CC8BF0A42CFCE98EF0A42CFC22
:100786008AF0EDA42CFCEA8EF0A4CDA8F08BF0A4A0
:100796002DCC3825F0FDE98FF0A42CCD35F0FCEBFF
:1007A6008EF0A4FEA9F0EB8FF0A4CFC5F02ECD39C4
:0F07B600FEE43CFCEAA42DCE35F0FDE43CFC2231
:1007C50075F008758200EF2FFFEE33FECD33CDCCEB
:1007D50033CCC58233C5829BED9AEC99E58298406E
:1007E5000CF582EE9BFEED9AFDEC99FC0FD5F0D64B
:1007F500E4CEFBE4CDFAE4CCF9A88222B800C1B975
:100805000059BA002DEC8BF084CFCECDFCE5F0CBB2
:10081500F97818EF2FFFEE33FEED33FDEC33FCEBEB
:1008250033FB10D703994004EB99FB0FD8E5E4F9A6
:10083500FA227818EF2FFFEE33FEED33FDEC33FC93
:10084500C933C910D7059BE99A4007EC9BFCE99A87
:10085500F90FD8E0E4C9FAE4CCFB2275F010EF2FCC
:10086500FFEE33FEED33FDCC33CCC833C810D707CC
:100875009BEC9AE899400AED9BFDEC9AFCE899F807
:0E0885000FD5F0DAE4CDFBE4CCFAE4C8F9229A
:0E089300C3E49FFFE49EFEE49DFDE49CFC2276
:1008A100EB9FF5F0EA9E42F0E99D42F0E89C45F0AD
:0108B1002224
:1008B200E8600FECC313FCED13FDEE13FEEF13FF24
:0308C200D8F12248
:1008C500BB010789828A83020B355005E9F8020BC3
:1008D50029BBFE05E9F8020B4189828A83020B4D8B
:1008E500BB010DE58229F582E5833AF583020B35D7
:1008F5005007E92582F8020B29BBFE07E92582F896
:10090500020B41E58229F582E5833AF583020B4D19
:10091500BB010789828A830209835005E9F8020B26
:0A09250093BBFE05E9F8020B9F22C8
:10092F00BB010DE58229F582E5833AF58302098340
:10093F005007E92582F8020B93BBFE07E92582F8E1
:04094F00020B9F22D6
:10095300BB010DE58229F582E5833AF583020B6A33
:100963005007E92582F8020B5DBBFE07E92582F8F3
:10097300020B76E58229F582E5833AF583020B8340
:0C098300ECF0A3EDF0A3EEF0A3EFF022E7
:10098F00A8828583F0D083D0821209A61209A612FD
:10099F0009A61209A6E473E493A3C583C5F0C58322
:1009AF00C8C582C8F0A3C583C5F0C583C8C582C8B2
:0109BF002215
:1009C000BB010789828A8302098F5005E9F8020B6F
:0A09D000ABBBFE05E9F8020BC422E0
:1009DA00BB010DE58229F582E5833AF58302098F89
:1009EA005007E92582F8020BABBBFE07E92582F81E
:0409FA00020BC42206
:1009FE00BB010789828A83020BEF5005E9F8020BCF
:100A0E00DDBBFE05E9F8020C0189828A83020C1314
:100A1E00BB011A89828A83D0F0D0E0F8D0E0F9D0F9
:100A2E00E0FAD0E0FBE8C0E0C0F0020BF85016E9A7
:100A3E00F8D083D082D0E0F9D0E0FAD0E0FBC082CB
:100A4E00C083020BE6BBFE16E9F8D083D082D0E05D
:0F0A5E00F9D0E0FAD0E0FBC082C083020C0A227C
:100A6D00BB010DE58229F582E5833AF583020BEF93
:100A7D005007E92582F8020BDDBBFE07E92582F858
:100A8D00020C01E58229F582E5833AF583020C1308
:100A9D00BB0120E58229F582E5833AF583D0F0D0BC
:100AAD00E0F8D0E0F9D0E0FAD0E0FBE8C0E0C0F02B
:100ABD00020BF85018E92582F8D083D082D0E0F9E6
:100ACD00D0E0FAD0E0FBC082C083020BE6BBFE187B
:100ADD00E92582F8D083D082D0E0F9D0E0FAD0E0D9
:090AED00FBC082C083020C0A2246
:100AF600D083D082F8E4937012740193700DA3A38F
:100B060093F8740193F5828883E473740293B5F0C5
:0D0B1600067403936860E9A3A3A3A380D82D
:060B23008A838982E4735D
:103E10000232CBE493A3F8E493A34003F68001F2CB
:103E200008DFF48029E493A3F85407240CC8C333B3
:103E3000C4540F4420C8834004F456800146F6DF82
:103E4000E4800B01020408102040809011E1E47E20
:103E5000019360BCA3FF543F30E509541FFEE49377
:103E6000A360010ECF54C025E060A840B8E493A33E
:103E7000FAE493A3F8E493A3C8C582C8CAC583CA69
:103E8000F0A3C8C582C8CAC583CADFE9DEE780BE21
:0116020000E7
:0C0B2900E6FC08E6FD08E6FE08E6FF22F8
:0C0B3500E0FCA3E0FDA3E0FEA3E0FF2233
:0C0B4100E2FC08E2FD08E2FE08E2FF22F0
:100B4D00E493FC740193FD740293FE740393FF22EE
:0D0B5D00E6FB08E6F908E6FA08E6CBF82208
:0C0B6A00E0F8A3E0F9A3E0FAA3E0FB220E
:0D0B7600E2FB08E2F908E2FA08E2CBF822FF
:100B8300E493F8740193F9740293FA740393FB22C8
:0C0B9300ECF608EDF608EEF608EFF6228E
:0C0B9F00ECF208EDF208EEF208EFF22292
:100BAB00D083D082E493F608740193F60874029311
:090BBB00F608740393F674047348
:100BC400D083D082E493F208740193F20874029300
:090BD400F208740393F274047337
:090BDD00E6FB08E6FA08E6F9223D
:090BE600EBF608EAF608E9F62234
:090BEF00E0FBA3E0FAA3E0F92207
:090BF800EBF0A3EAF0A3E9F022FE
:090C0100E2FB08E2FA08E2F92224
:090C0A00EBF208EAF208E9F2221B
:0C0C1300E493FB740193FA740293F9223D
:00000001FF
